:020000040800F2
:10000000B8080020D500000805230008F91A0008E8
:1000100000000000000000000000000000000000E0
:100020000000000000000000000000004F23000856
:1000300000000000000000004D230008ED23000830
:10004000E7000008E7000008E7000008E7000008F4
:10005000E7000008E7000008E7000008E7000008E4
:1000600000000000E7000008E7000008E7000008C3
:10007000E7000008E700000800000000E7000008B3
:100080000000000000000000000000000000000070
:10009000E700000800000000E7000008E700000893
:1000A00000000000E7000008000000000000000061
:1000B00081280008FD1A0008000000000000000070
:1000C0000348854600F046FC00480047A52A000882
:1000D000B80800200448804704480047FEE7FEE7D0
:1000E000FEE7FEE7FEE7FEE765240008C100000822
:1000F00030B50B46014600202022012409E00D46C0
:10010000D5409D4205D31D469540491B2546954047
:1001100040191546521E002DF1DC30BDF0B51FB45C
:100120000646002082B005464024019100901BE065
:10013000019922460F46304600F048FB049A059B81
:10014000801A994110D310461946224600F02EFB22
:10015000361A8F410197224601200021009F00F0AE
:1001600025FB38184D4100902046641E0028DFDC36
:10017000019B00982946324607B0F0BDD2B201E09B
:100180000270401C491EFBD270470022F6E710B5F2
:1001900013460A4604461946FFF7F0FF204610BDF5
:1001A00030B505462A460B4610781C78521C5B1C5D
:1001B000002801D0A042F7D0002C03D0002802D0A4
:1001C0006D1CEFE7284630BD421C0178401C002919
:1001D000FBD1801A7047F8B502464A40D40F42005E
:1001E0004B0052085B089A4202D20246084611466A
:1001F0004A0023D0C30D4A00DDB2120EAD1A202DE5
:1002000035DA49020126490AF6058A19002C00D080
:10021000524220214F1B1146B9402A411018C20DED
:100220009A4221D0002C17D0012D08DCDA05801A63
:10023000D20F8019D207DBB200F0F4FAF8BDDA056C
:10024000801A012340001B06C01880185A428018EB
:10025000CA0F1043490007E04908C2071143DA05F5
:10026000801A80194008801800F0D4FAF8BD6100A7
:100270000122511A001BF7E70122D2075140AAE7D9
:100280000122D2075040A6E7024670B54A40D30F7C
:10029000DB0740002DD04A002AD0010E140E0002C8
:1002A00012020919400A520A8418E501044654430F
:1002B000000A120A2E045043A4194219200CC54307
:1002C000AA18120C0125AD03521C521912047F39D1
:1002D000240400D0521C104301D44000491EC2B275
:1002E0000C06C0092018401C4008802A02D003E0F8
:1002F000002070BD40084000002900DA00201843AB
:1003000070BD70B502464A40D50F40004A00ED0767
:1003100040085208002814D0002A12D0C40DD30D72
:1003200041020120C0055202490A520AE41A091882
:1003300012187D34914201D3641C00E04900002C66
:1003400001DA002070BD0023914201D3891A0343D2
:10035000400849000028F7D100290AD0914202D173
:100360000121C90705E0914201D2012101E00121EB
:10037000C943E005C018401900F04CFA70BD4200B6
:1003800005D04200120E52428A4201DB0020704723
:10039000C905081870470000F0B5074608465840E0
:1003A00087B0C00F049048000E4659004008490825
:1003B000BC1A884105D2384631461E4617460B46C0
:1003C00002465800400810434CD0300D03904005C1
:1003D0005900400D490D0590401A0290402872DAEC
:1003E00018030121000B09050843019004980092AD
:1003F000002805D0019952420020884100920190C6
:10040000029840210A1A0199009800F0CFF9054698
:100410000C466B4607CB00F0EAF9C0197141039A0C
:100420000E0D0023D71756401A467A40164344D083
:10043000049A002A2DD0029A012A039A15DC12058B
:10044000C01A914101263605001C7141D20F059E4C
:10045000D2070093019202962A46234600F028FA1A
:1004600007B0F0BD38463146FAE71605224A0F4676
:10047000B218C01AB74101210905001C4F410018EC
:100480007F41114618187941E20F10436D196441FC
:1004900013E0E2076D0815436408C2071443039A8A
:1004A00001261205C01A91413605001C7141CE0784
:1004B000400830434908C01851412A46234600F0FD
:1004C000EAF9CDE7FFE7049801224000C117121AAC
:1004D00000238B4104983146C417381AA141EEE736
:1004E00030B40124E407634030BC55E730B4012444
:1004F000E407614030BC4FE70000E0FFF0B51FB4F7
:1005000088B00B990998002448400999C00F490008
:1005100049080991C0070B990090490049080B91BF
:1005200009990898A64608431CD00B990A980843D5
:1005300018D0099801244000420D4800410D099847
:1005400024050003000B204309900B980003000BC7
:1005500020430B9050181C4940180022019014466B
:10056000104605E0002001460DB0F0BD032801DA79
:10057000034600E003239C46C11A0AAE0AE05F006E
:1005800008ADED5B4F00F75B7D430027AA187C4167
:10059000491C5B1E6145F2DD410004AB5A52210447
:1005A000120C0A43240C401C0828DFDB019802903F
:1005B0000099704601910090059B049A079906984E
:1005C00000F076F9D0E700000DFCFFFFF0B50C4617
:1005D0005C4085B0E40FE40703944C0000266408F7
:1005E00059009446490802460296224321D06246A9
:1005F0000A431ED06200570D4A000E032303550D17
:10060000012402462C492405781B1B0B360B40188D
:1006100023432643614600901C46501AB44103D33D
:100620000098401C009002E0921800985B4100285E
:1006300003DA0020014605B0F0BD002001210905C4
:100640000746864611E064461D46141BB54106D395
:100650006546521BB341744607430C43A646CD077B
:1006600040084908284392185B4105460D43EAD1EA
:100670001046184313D06046194650407140084355
:1006800006D06046101AB34106D20122002306E0CC
:1006900000220123DB0702E00122D243531000981D
:1006A00074460105381C6141029C039D0019694193
:1006B00000F0F1F8BFE70000FD03000010B50022D4
:1006C0009623114600F0AEF810BD00000EB50549A6
:1006D0000291002100910A460B46019100F0E8F8D2
:1006E00003B000BD33040000410040020122400A73
:1006F000D205090E80187F2901DA0020704796295B
:1007000003DC9622511AC8407047963988407047DA
:100710004A0009030123090B1B051943094B10B5B6
:10072000520D9A4201DA002010BD064B34339A4232
:1007300003DC9A1A00F04AF810BD034951188840AA
:1007400010BD0000FF030000CDFBFFFFC20FD2076A
:10075000400040080BD0C10D0723DB01C91840023F
:100760000905400A1143C2084007114370470020A1
:1007700001467047CB0FDB07490010B54908024618
:100780000A4307D00A0D07240903E401090B121BD1
:10079000002A01DC002010BDC900440F0C43C10039
:1007A000E018D205801800F035F810BD10B5202AE9
:1007B00004DB0146203A9140002010BD91402023E7
:1007C0009C1A0346E3401943904010BD10B5202AFF
:1007D00004DB0846203AD040002110BD0B46D34030
:1007E000D0402024A21A91400843194610BD10B5EC
:1007F000202A06DBCB170846203A1041C1170B43CD
:1008000006E00B461341D0402024A21A9140084331
:10081000194610BD002904DA401C490001D14008E6
:100820004000704770B40024050C05D1102400046A
:1008300002D1002921D01124050E01D10002083473
:10084000050F01D10001241D850F01D18000A41CDA
:10085000002801DB4000641C002908D020252E1B45
:100860000D46F540A14000D001212943084301066F
:100870001B1B000ADB1D02D5002070BC7047DB0586
:10088000181880180029F8DA401C4900F5D170BC0E
:1008900040084000704710B5002B08DA0024401CC7
:1008A000614192185B411A4301D14008400010BDDC
:1008B000F0B51FB482B005460C0003D0084602F024
:1008C0000BF802E002F008F82030024600902146C2
:1008D0002846FFF76BFF049B059A04460F46184312
:1008E0001143084314D0184610431BD000984021F0
:1008F0000A1A18460599FFF769FF05460E46009A41
:1009000005990498FFF752FF084305D0012004E041
:100910002046394607B0F0BD0020C11705430E43FD
:100920002C43374300990E986305401A7905E40A71
:1009300000220C43FD0A0A3002D500200146E9E7F7
:100940000105101969410C9C0D9D00196941FFF7C3
:10095000A2FFDFE7064C0125064E05E0E36807CC61
:100960002B430C3C98471034B442F7D3FFF7ACFB51
:10097000083000082830000870B58C180578401C35
:100980006B075B0F01D10378401C2A1106D1027856
:10099000401C03E006780E70401C491C5B1EF9D118
:1009A0002B0705D40023521E0DD40B70491CFAE707
:1009B0000378401CCB1A921C03E01D780D70491C73
:1009C0005B1C521EF9D5A142D8D3002070BD000097
:1009D00038B50446064805490068FFF789FB6043BF
:1009E00000E0401E00900028FBD138BD40420F00BF
:1009F00054010020F8B50024244E04E0641CE4B245
:100A0000012000F0D9F93068400701D40A2CF5D351
:100A10000A2C02D11EA001F04FFF1C4F403738684E
:100A2000204C0025208104E06D1CEDB2012000F077
:100A3000C3F93068400701D40A2DF5D30A2D02D13D
:100A400019A001F039FF386880B2A081FFF73EFE9F
:100A500005460E466089FFF739FE0022174BFFF767
:100A60004DFD2A463346FFF7B1FDFFF783FE0546ED
:100A700060612089FFF722FE2946FFF705FC0A2165
:100A8000C943FFF77CFC2061F8BD00000024014051
:100A9000CDA8B5C034D7AABBBBCAA7B0DCA3A10DF3
:100AA0000A00000000000020CDA8B5C03137D7AA49
:100AB000BBBBCAA7B0DCA3A10D0A00000000084020
:100AC000F8B506460D464036317C01290DD001218E
:100AD000317401688A68520709D5416D202211439B
:100AE0004165002030740120F8BD0220F8BD174B8D
:100AF0006A68D80547109A42154C8A6A2B6812D04A
:100B00005B035B0B1A438A622968490305D5A16818
:100B10000143A1600A20FFF75BFF2868800312D51C
:100B2000A06838430EE05B035B0B9A438A62296836
:100B3000490302D5A1688143A1602868800302D5DA
:100B4000A068B843A06000203074F8BD0110000018
:100B50000027014070B5040006D0606D26460025D0
:100B60004036002802D006E0012070BDA56535742E
:100B7000204600F0D3F8606DC00603D42168886871
:100B8000400705D5606D1021084360653574EBE7BB
:100B9000606DFF2201329043022210436065886835
:100BA0008207920F5B48012A02D10A68D2072BD133
:100BB000032362689B079A4205D05B429A4202D0A7
:100BC0005B009A4209D10A69920092080A61216881
:100BD0000A6963681A430A610CE00A699200920884
:100BE0000A6181680F229204914381608168626882
:100BF000114381602168CA6818239A43CA6021683A
:100C0000CA68A3681A43CA608168012252069143E8
:100C100081608168A28E52061143816020688168DC
:100C2000C90004D481680122120711438160206841
:100C3000C168394A1140C1602069E168022825D0A5
:100C400000200143204620300278037B52035B00E2
:100C50001A431143226B1143A26992031143E269C3
:100C6000D20311432268D3681943D160616A0A46EE
:100C7000FF3AC23A05D0A26A11432268D3681943E9
:100C8000D16042780121012A02D00BE00420D8E78C
:100C90000078002823D0606D202210436065A06D8D
:100CA0000843A065E06B012820681FD00169C907CF
:100CB00003D0016949084900016120684169C908F8
:100CC000C900416120684169A26B11434161A5657A
:100CD000606D80088000401C6065002070BD206849
:100CE000C26801231B041A43C260DBE70269FF23C9
:100CF0009B009A43026120680269236CA66C1A4328
:100D0000636C33431A430261206802690A4302613B
:100D1000D3E70000002701401902FEFF10B586B09E
:100D2000044614216846FFF730FA0E4920688842CD
:100D300016D10D48416B421511434163C16A01222E
:100D40001143C162C06A69461040059010200090AE
:100D500003200190002002900520000700F03AF8DF
:100D600006B010BD002401400010024070B5002400
:100D7000014620314A79022A03D00421C1630124AB
:100D800018E0026813680E25AB431360026813680D
:100D90005B085B001360436C1C2213400122154664
:100DA0009D40036C5D604A7100220A71816B0029CD
:100DB00000D08847204670BD70B5044600F0CAF8E0
:100DC0000546601C00D0641C00F0C4F8401BA04223
:100DD000FAD370BDF8B5002301249DE027469F405B
:100DE0003A4070D04D68022D01D0122D14D1DD088B
:100DF000AD002D1800952D6A5E07AC46F50E0F2646
:100E0000AE46AE406546B543AC460E697546AE404B
:100E100065462E43009D2E624D68012D05D0022DA2
:100E200003D0112D01D0122D16D185680326AC46B2
:100E30005D00AE46AE406546B543AC46CE687546ED
:100E4000AE4065462E43866046680D79BE43ED068A
:100E5000ED0F9D403543456006685F000325BD40AA
:100E6000AE46AE430D79B446AE07B60FBE406546FA
:100E70002E430660C6687546AE438D68BD40354357
:100E8000C5604D68ED0046D5264D6E6B26436E63FA
:100E90009E08254DB6007519AC46AD689E07360F05
:100EA0000F27B740BD4305273F07B84201D10027B0
:100EB00010E01E4FB84201D101270BE01C4FB84291
:100EC00002D1022706E026E01A4FB84201D10527D9
:100ED00000E00627B7402F436546AF60164D2E68E9
:100EE0004F689643FF0300D516432E606E684F6827
:100EF0009643BF0300D516436E60AE684F689643B5
:100F0000FF0200D51643AE60EE684F689643BF02FD
:100F100000D51643EE605B1C0A681546DD4000D024
:100F20005CE7F8BD001002400000014000040050E2
:100F300000080050001C00500004014000690840F7
:100F400000D001207047002A01D081617047816282
:100F50007047000001480068704700005001002001
:100F600002480168491C01607047000050010020E0
:100F700010B5084800240168402211430160204652
:100F800000F00AF8002801D0012401E000F01CF86C
:100F9000204610BD0020024070B5054609487D215D
:100FA0000024C9000068FFF7A3F800F0F7FB002851
:100FB00001D0012404E000222946501E00F01AF856
:100FC000204670BD540100200448416B01221143AA
:100FD0004163816B0204114381637047001002403A
:100FE000C106C90E01208840014908607047000011
:100FF00000E100E010B501F087F910BDF8B5044636
:1010000000784F4D800672D54D4E0027403EB06BA4
:10101000C00004D4B06BA9050843B0630127494858
:101020000168C90511D40168821511430160FFF7F9
:1010300091FF009005E0FFF78DFF0099401A6428AA
:1010400037D840480068C005F5D532680321090546
:1010500060680A400140914208D08103890F03294A
:1010600004D13168890301D50120F8BD2A69032123
:1010700009040A4022D0084090421FD02078800600
:101080001CD528692A6988430121C9040A432A61B9
:101090002A698A432A612861C0050FD5FFF75AFFE4
:1010A000009008E0FFF756FF0099411A2648814258
:1010B00001D90320F8BD28698005F3D5616888034C
:1010C000800F032805D132680005824301400A439E
:1010D00032602869032261681204114008432861C4
:1010E000002F04D0B16B012000078143B163207849
:1010F000800705D5E8680C218843A1680843E860AB
:101100002078400706D5E868032189028843E16812
:101110000843E8602078000706D5E8680321090342
:10112000884321690843E8602078000606D5E8680E
:1011300003218904884361690843E8600020F8BD01
:10114000401002400070004088130000F8B50E46C1
:1011500005007DD053480068C007C00FB0420AD2D6
:101160005048016849084900314301600068C007E0
:10117000C00FB04271D128784B4C800705D5E0688C
:10118000F0218843A9680843E0602878C00752D05E
:101190006868022817D0032818D02168012818D0C1
:1011A0008905002959DAE168890889000143E1606D
:1011B000FFF7D0FE69680746022912D003291CD028
:1011C000012926D033E021688903EAE721688901F3
:1011D000E7E74907E5E7FFF7BDFEC11B334881425A
:1011E00023D8E0680007800F0228F4D123E0FFF73E
:1011F000B1FEC11B2D48814217D8E0680007800F5F
:101200000328F4D117E0FFF7A5FEC11B2748814250
:101210000BD8E0680007800F0128F4D10BE0FFF73E
:1012200099FEC11B2148814201D90320F8BDE06825
:101230000007800FF3D11B480168C907C90FB142ED
:101240000DD901684908490031430160006800E098
:1012500003E0C007C00FB04201D00120F8BD2878DC
:10126000400706D5E068072109028843E96808437A
:10127000E0602878000707D5E0680721C9028843A5
:101280002969C9000843E06000F036F8E168084ABF
:101290000906090F515CC840064908600020FFF7A5
:1012A0007BFEF8BD002002400010024088130000C1
:1012B000E42F000854010020044805490068C9686B
:1012C000044A4905490F515CC84070475401002049
:1012D00000100240FD2F0008044805490068C96855
:1012E000044A8904490F515CC840704754010020EA
:1012F00000100240FD2F000810B5184AD1680C20DC
:10130000084004280BD0082810D00C2810D05068B2
:101310000004410F0120C003491C884010BD106823
:10132000C00601D50E4810BD0E4810BD0E4810BDB8
:1013300088020E4B000F185C0902D368890F491C04
:10134000DB0301D5084A05E01268D20601D5044A3C
:1013500000E0044A5043FEF7CBFE10BD00100240EF
:1013600000093D000024F40000127A00F42F000868
:10137000FEB505007ED0FE4CE7680C20E66807400D
:101380000120000406402878C00747D0082F05D068
:101390000C2F0AD101200004864206D12068800368
:1013A0003CD568680028E5D038E001206968000471
:1013B000814203D121680143216011E0052301220C
:1013C0001B0492049942216802D111432160F1E784
:1013D0008143216021680140009120689043206092
:1013E000686800280DD0FFF7B5FD009005E0FFF715
:1013F000B1FD0099401A64287ED820688003F6D594
:101400000CE0FFF7A7FD009005E0FFF7A3FD0099B2
:10141000401A6428F0D820688003F6D42878800722
:101420005CD5E868810604D5226820210A43226041
:1014300088430923042F0DD00C2F01D1002E09D091
:1014400000283BD02168994301432160FFF782FDCA
:10145000064627E02168490701D500288AD061683F
:101460001F22120291432A6912021143616021680E
:10147000994300E08EE101432160FFF73DFFE16801
:1014800009060A0FBB49895CC840BB4908600020B7
:10149000FFF782FD002873D120E0FFF75BFD801B82
:1014A0000228A9D820684007F7D560681F210902E3
:1014B000884329690902084360600FE020684008FA
:1014C00040002060FFF746FD064604E0FFF742FDBE
:1014D000801B022890D820684007F7D42878C006DF
:1014E00060D5002F0DD0A86900284AD02068FF21C0
:1014F00001310843206000E0C4E0FFF72BFD064601
:101500002CE02068800502D5A8690028A6D0606874
:10151000072149038843296A084360606068297F7E
:101520000002000A090608436060286A410B012096
:10153000C003491C8840E16809060A0F8D49895C8F
:10154000C8408D4908600020FFF726FD002817D10C
:1015500028E0FFF7FFFC801B0228A2D82068800546
:10156000F7D56068072149038843296A084360600A
:101570006068297F0002000A09060843606011E0E4
:10158000E1E02168FF20013081432160FFF7E2FCA8
:10159000064604E0FFF7DEFC801B022872D82068B4
:1015A0008005F7D42878754E000724D5686900288F
:1015B000306910D0012108433061FFF7CBFC009067
:1015C00005E0FFF7C7FC0099401A02285AD8306995
:1015D0008007F6D50FE0400840003061FFF7BAFC05
:1015E000009005E0FFF7B6FC0099401A022849D8A0
:1015F00030698007F6D42878400765D5002002902E
:10160000A06BC00006D4A06B012109070843A063AA
:10161000012002905A480168C90511D40168821559
:1016200011430160FFF796FC009005E0FFF792FC84
:101630000099401A642825D851480068C005F5D59E
:10164000FF20AA680130824203D131690143316130
:1016500011E001218902002A07D005231B029A42CA
:1016600003D132690A433261EFE732698243326162
:10167000306988433061A86800280FD0FFF76AFC02
:10168000009007E05EE0FFF765FC0099411A3D48D5
:10169000814257D830698005F5D50DE0FFF75AFC37
:1016A000009006E0FFF756FC0099411A3548814248
:1016B00048D830698005F5D40298002804D0A16B81
:1016C000012000078143A163686A002864D00C2FC1
:1016D0003ED0012636060228206805D0B04320609F
:1016E000FFF738FC05462FE0B0432060FFF732FCDF
:1016F000074604E0FFF72EFCC01B022822D8206812
:101700008001F7D4E96AA86AE2680843296BFD23DF
:101710001B049A4311430843E06020683043206073
:10172000FFF718FC054604E0FFF714FC401B0228F5
:1017300008D820688001F7D52EE0FFF70BFC401B8E
:10174000022801D90320FEBD20688001F5D423E0E2
:101750000128F8D0E06801210904AA6A01409142F9
:1017600018D10F218904EA6A0140914212D10BE09D
:1017700000100240E42F00085401002040100240F5
:101780000070004088130000032189050840296B80
:10179000884201D00120FEBD0020FEBD094910B5E0
:1017A000401E884201D9012010BD074C6061032111
:1017B000081F00F0A9FD0020A06107202061002083
:1017C00010BD0000FFFFFF0000E000E07047704721
:1017D000F8B502680446D0691168936805072D0FB3
:1017E0005BD0DD07ED0FFF2621360E402E4367D07C
:1017F000C60706D0CE0504D501261662E26F324335
:10180000E267870702220426002F06DADF0704D0EA
:1018100027683A62E76F3743E767470706D5DB0774
:1018200004D023681E62E36F1343E367020709D500
:1018300020220A402A4305D0236808221A62E36F57
:101840001343E367E26F002A2FD0800606D588068F
:1018500004D5216E002901D020468847E06F216819
:101860008968490601D4000724D5204600F0C4FE4B
:1018700020688168490619D58168402291438160BA
:10188000E06E002812D020498163E06EFFF76EFA07
:1018900000280AD0E06E816B06E0850610D58D0623
:1018A0000ED5216E1CE020468847F8BD2046FFF784
:1018B0008EFFF8BD2046FFF78AFF0020E067F8BDE5
:1018C000C50208D55B0206D501200005106220463E
:1018D000FFF77CFFF8BD030605D50B0603D5616E47
:1018E0000029E0D1F8BD4006FCD54806FAD51368BA
:1018F000204640218B4313602021616700216166EF
:1019000000F0F9F8F8BD0000E525000810B5040066
:1019100003D0606F002802D007E0012010BD002135
:1019200070200155204600F027F8242060672068C9
:101930000168490849000160204600F06DFE012859
:10194000ECD0606A002802D0204600F0B5FD206887
:1019500041680922D20291434160206881682A22AD
:101960009143816020680168012211430160204693
:1019700000F008FE10BD0000F0B587B00446142149
:101980006846FEF702FC254F266805200022244900
:101990000123022403250007BE421AD18E6B9F0447
:1019A0003E438E63CE6A1E43CE62C96A03951940D8
:1019B00005910C210091062104910194029269463F
:1019C000FFF708FA002211461D20FFF713FB1D2028
:1019D0001FE0144FBE421ED18E6B01277F043E4391
:1019E0008E63CE6A1E43CE62C96A0395C907C90FCA
:1019F000059103214902009104210491019402926E
:101A00006946FFF7E7F9002211461C20FFF7F2FABA
:101A10001C20FFF7E5FA07B0F0BD000000480040C9
:101A20000010024000440040FFB50446406F83B000
:101A300017460D4620285CD1002D0AD0002F08D073
:101A4000A168C001814207D12069002804D1E807BC
:101A500002D0012007B0F0BD204660300290007C2B
:101A6000012846D00298012101740020E06721205E
:101A70006067FFF76FFA264640360190378277821B
:101A80000120A1680003814202D12069002802D010
:101A90002F46002511E000270FE00022802120467C
:101AA00000F0BCFE002815D1002F15D02168387831
:101AB00088627F1C708A401E7082708A019B002899
:101AC00006980090E9D100224021204600F0A6FEB1
:101AD000002808D00320BDE728882168C005C00D74
:101AE0008862AD1CE6E72020606702990020087438
:101AF000B0E70220AEE77047FEE7000010B50A48E5
:101B00000068C16989060AD5426A0948074B01790C
:101B10005A54491C01710121C170002141710248D0
:101B2000FFF756FE10BD0000B8010020B8030020EA
:101B3000480100207CB50025284800950195264CD9
:101B4000C56385602205046042600722826301222A
:101B50000346C5602033026129461A70FF2659707A
:101B6000C23646628162197301630426826146614E
:101B7000C2614163FEF7EEFF194800900014019026
:101B800069461648FEF79CFF1648009069461348C0
:101B9000FEF796FFA06861050843A06004E06D1C95
:101BA000EDB20120FFF708F92068000501D40A2DE5
:101BB000F5D30A2D02D10CA000F07EFE2068012191
:101BC000C902084320600E480E49008B4881A06876
:101BD0003043A0607CBD0000002401405C01002077
:101BE0001000001000000244414443B3F5CABCBBDE
:101BF000AFD0A3D7BCCAA7B0DCA3A10D0A000000D8
:101C00006000F81F00000020F0B587B0142168467E
:101C1000FEF7BBFA1F48C26A04210A43C262C26AC5
:101C20000A400592C16A01252943C162C16A29405F
:101C30000591C16A02263143C162C06A164F304025
:101C4000EC0305902A4621463846FFF77CF905202B
:101C50000022E3210007FFF776F9009400240195A4
:101C60000294694638460394FFF7B4F8E3200090E5
:101C7000052002946946019503940007FFF7AAF82E
:101C800069460648009602950194FFF7A3F807B04D
:101C9000F0BD000000100240000800500004005099
:101CA00010B50D4C0B4820604B20C0016060002037
:101CB000A060E0602061A0610C212062616160622F
:101CC0002046FFF723FE20680168202211430160AF
:101CD00010BD000000480040B801002010B50D4CB8
:101CE0000B4820604B20C00160600020A060E060D5
:101CF0002061A061E0610C21206261616062204688
:101D0000FFF704FE2068016820221143016010BD26
:101D10000044004038020020F8B5FBA1FE48FEF761
:101D20003FFAFE4D00287DD0FB4E707C2C287AD1E6
:101D3000002703E07F1CFFB20A2F05D8F019807C32
:101D40002C28F7D10A2F01D9F5A0C7E0FBA1F24852
:101D5000FEF726FA002833D0F048002494300146DC
:101D6000643907E03219927C0B191A750319641C47
:101D70001A74E4B2BC42F5D32C2100190174332249
:101D8000427482743222C2743022027541758275A7
:101D9000C17535230376372343768276C276017781
:101DA000342343778177C37720300170017142710A
:101DB0008171C2710D2101720A2141726C7163E05F
:101DC000E0A1D548FEF7ECF900285DD0D34B002404
:101DD00030331846A0300AE03119897C1A19117580
:101DE00002191174D94A1219641C1174E4B2BC426C
:101DF000F2D32C2100190174332242748274C2740C
:101E000036230375417530238375C17535260676F3
:101E1000467631268676C2760177467781773927EE
:101E2000C77701E043E05BE0203001702227477074
:101E3000C772017346738173C3730D2707740A2732
:101E40004774C2480019017442748274C274362205
:101E5000027541758375C1753522027642768676A4
:101E60003422C276017746778177C67720300370B7
:101E700041702222827042738173C3730174437470
:101E80000D218174C774AC71A4482C213030001925
:101E90000175312141750D2181750A21C1759F4858
:101EA0001834E1B2AAA2303000F052FA73E0A9A1CE
:101EB0009948FEF775F900286DD09749887C2C2841
:101EC00069D1002003E0401CC0B20A2805D80A18D6
:101ED000D27C2C2AF7D10A2803D9A2A000F0ECFC6E
:101EE00059E08E4E0024623605E00A193319D27C7F
:101EF000641C5A75E4B28442F7D392A18648FEF777
:101F00004FF900281FD030192C21417531228275DC
:101F1000C175392303764176222383763521C17634
:101F200001774277332686773B26C67720300170CB
:101F3000417082703421C17003710D2141710A21F9
:101F4000817127341EE07DA17348FEF729F900282E
:101F500021D02C213019417531228275C17534226E
:101F600002764176222181763522C27637220277A7
:101F7000302242778277C1770D21203001700A210B
:101F8000417022346548E1B271A2623000F0E0F99C
:101F90002878401C28707AA15F48FEF701F90028D4
:101FA0007DD05D4E707F412879D1344620346078F1
:101FB000764930384843A178754A51434118207911
:101FC0007D22D200504309186079642250430918D9
:101FD000A0790A2250430818E17941186D48081881
:101FE000A861FEF76BFB6C49FEF78BF90746E861C9
:101FF000F07F0A2230382178504330380818FEF735
:102000005DFB3946FEF7E7F86449FEF73DF9686283
:10201000FEF76AFB074662492862FEF769F84B4AF9
:10202000AB793C3AD61830302036B07008465D495E
:10203000FEF75EF83030F0702E2030715949384686
:10204000FEF756F808465149FEF752F830307071E5
:102050004E493846FEF74CF808464D49FEF748F819
:102060003030B0714A493846FEF742F808467D21C3
:10207000C900FEF73DF83030F0717D21C9003846C7
:10208000FEF736F808466421FEF732F83030307239
:1020900064213846FEF72CF808460A2100E018E1D2
:1020A000FEF726F8303070720A213846FEF720F825
:1020B0003031B17239463CA000F0FEFBA07B3349C1
:1020C00030384843E17B324A51434118607C7D22DD
:1020D000D20050430918A07C642250430918E07CC8
:1020E0000A2250430818217D41182A480818A8617F
:1020F000FEF7E4FA2849FEF704F90646E861E07ABB
:102100006422617B303855E02B4D49504C4F42538F
:10211000455256453A000000B80300200000002058
:102120002B4D49504C4F425345525645CAFDBEDDDA
:10213000BDD3CAD5B4EDCEF30D0A0000333332302F
:102140000000000033333336000000000C01002093
:102150004F4B00002B4D49504C444953434F56457B
:10216000523A00002B4D49504C444953434F564579
:1021700052CAFDBEDDBDD3CAD5B4EDCEF30D0A0003
:102180002B51474E535352443A000000A0860100A1
:1021900010270000B0DCF7FF007C124900247449CE
:1021A0008096980040420F00CEB3B6C83D25640D1E
:1021B0000A00000050430918207B0A2250432122C4
:1021C0001201801A0818FEF779FA3146FEF703F873
:1021D0004049FEF759F8E862FEF786FA06463E499E
:1021E000A862FDF785FF3D4AAB793030D418203422
:1021F000E07008463A49FDF77BFF303020713849DE
:102200003046FDF775FF08463649FDF771FF30305F
:1022100060712E20A07133493046FDF769FF0846F2
:102220003149FDF765FF3030E0712F493046FDF749
:102230005FFF08462D49FDF75BFF303020722B49C8
:102240003046FDF755FF08467D21C900FDF750FFD8
:10225000303060727D21C9003046FDF749FF0846E5
:102260006421FDF745FF3030A07264213046FDF750
:102270003FFF08460A21FDF73BFF3030E0720A219C
:102280003046FDF735FF30312173314618A000F09C
:1022900013FBA87919A23230C1B210483C3800F0C3
:1022A00057F8AA790D497D23DB003C3914483232B6
:1022B000FFF7BAFBA87911A23430C1B2074800F089
:1022C00047F8AA797D23DB0004490D483432FFF733
:1022D000ABFBF8BD0024744900E1F5050C010020BA
:1022E0008096980040420F00A08601001027000051
:1022F000BEADB6C83D25640D0A0000004F4B00007E
:1023000038020020704700008307FF22DB0E9A404E
:102310008907090E994000280BDA0007000F0838DA
:10232000830808489B001818C36993430B43C36193
:102330007047830804489B001B18186890430843A3
:102340001860704700ED00E000E400E0704770475F
:10235000F7B507460D4600241F48FDF735FF014637
:102360001D48FDF712FF7D26F60033462A46394602
:102370001A48FFF759FBFF27194D2D3704E0641C5D
:10238000A4B20120FEF718FD2878002801D1BC4234
:10239000F5D3BC4201D101241CE0124C2078401C32
:1023A00020700120FEF708FD20780A28F6D30E4C95
:1023B0000A483346227808498030FFF735FB002071
:1023C00020702870022404480299FDF7E9FE0028D5
:1023D00000D000242046FEBDB8030020B801002034
:1023E0004B0100204D0100204C01002010B5FEF7EC
:1023F000B7FD10BD30B599B034216846FDF7C5FE74
:1024000014210DA8FDF7C1FE182112A8FDF7BDFE8D
:10241000134801680322D2029143C2148918016053
:1024200002200090002410200994012504900395B7
:102430006846FEF79DFF0F200D9080200F900E95AF
:102440001094002111940DA8FEF780FE0620129032
:102450001494159412A8FEF7D1FD19B030BD0000F8
:102460000070004010480168821511430160C16886
:102470000E4A1140C16001680D4A11400160816837
:10248000490849008160016801229204914301607A
:10249000C168FD2212049143C16000210161054918
:1024A000C003886070470000001002400C40FF88A5
:1024B000F6FFF6FE00ED00E010B5818CC90707D0ED
:1024C00001684A6801235B049A43836A1A434A609D
:1024D000818C890707D501684A6801231B049A4348
:1024E000C36A1A434A60818C490707D501684A6864
:1024F00001239B049A43036B1A434A60818C0907AA
:1025000007D501684A680123DB039A43436B1A43EA
:102510004A60818CC90607D50268916801231B03B4
:102520009943836B19439160818C890607D50168B3
:102530008A6801235B039A43C36B1A438A60818CC8
:10254000490612D503685A6801210905046C8A43BB
:1025500022435A60026C8A4207D102685168032301
:102560005B059943436C19435160818C090607D57B
:1025700001684A680123DB04806C9A4302434A6085
:1025800010BD0000F8B500260446C667FEF7E2FC61
:10259000054620680068124F000709D501212B4627
:1025A000002249052046009700F038F900280DD197
:1025B0002068006840070BD501212B4600228905C1
:1025C0002046009700F02AF9002801D00320F8BD2A
:1025D00020206067A067603426740020F8BD0000EA
:1025E000FFFFFF0110B5806A0022014640314A8397
:1025F0004A82FFF7ECF810BD01680A68FF23213317
:102600009A430A6001688A68520852008A60202151
:102610008167002101667047F8B504462669A26803
:10262000E76932436669102000253E432368324340
:1026300070491E68704F3E4016431E602268536802
:1026400003263603B343E668334353602368A26925
:102650008B4201D0266A32439E680B273F02BE435D
:1026600016439E60654E2368654AB3420AD1D2681C
:102670000C26324026D0042A28D0082A24D00C2A3E
:1026800010D10EE08B420DD1D66803229202164083
:1026900018D001229202B61A18D0B61A14D0964257
:1026A00000D10820564A0126403A564FF6038B4285
:1026B00036D100280CD002280DD0042812D00828CA
:1026C0001FD11CE00020EDE70220EBE70420E9E742
:1026D000FEF7F2FD08E01068C00601D5384605E0B7
:1026E000494803E0FEF708FE002873D062685100F5
:1026F0005118814205D81103814202D303E03046CC
:10270000F4E7012566E0010E0602500800233018A8
:102710005941FDF703FD03210902411A3B4A55E0E7
:10272000E169B14232D1030000F0EDF809070A0D6A
:1027300006250606062B0600E3E7FEF7BDFD1CE0B6
:10274000FEF7CAFD19E010686168C00602D54808A6
:102750002F4A01E02F4A48088018FDF7C9FC80B2D3
:1027600001462D4A10399142CBD8511C0140000737
:10277000400F08432CE0FEF7BFFD616840004A08A7
:10278000EAE76168012248081204E5E7030000F067
:10279000BAF809070A0D06260606062C0600B0E759
:1027A000FEF78AFD1DE0FEF797FD1AE010686168EC
:1027B000C00602D54808C01902E013484A0810189C
:1027C000FDF796FC80B20146134A1039914298D821
:1027D0002168C8600020206660662846F8BDFEF7C4
:1027E0008BFD61684A088018EAE76168480880192B
:1027F000E6E7000000480040F369FFEF00440040B6
:102800004010024000093D000024F400FFFC0F00CE
:1028100000127A000048E801EFFF0000FFB581B028
:1028200017460E4604460A9D09E0681C07D0FEF7CD
:1028300091FB0499401AA8420CD8002D0AD02068B8
:10284000C1693046884318D00020B842EDD000203E
:1028500005B0F0BD20680168FF22A13291430160FC
:102860002068816849084900816020206067A0676E
:102870000020603420740320EAE70120E5E700002F
:1028800010B50A480068C16989060AD5426A094834
:10289000074B41785A54491C4170012101700021B5
:1028A00081700248FEF794FF10BD0000380200203E
:1028B000B8020020480100200FB410B503A9044B52
:1028C000044A029800F03CF810BC08BC04B0184759
:1028D000912A0008580100202021020C01D010216B
:1028E0001046020A01D010460839020901D01046EC
:1028F000091F820801D01046891E420801D0881E97
:102900007047081A704730B47446641E2578641CFA
:10291000AB4200D21D46635D5B00E31830BC184734
:1029200002E008C8121F08C1002AFAD17047704798
:10293000002001E001C1121F002AFBD170470000F6
:10294000FFB58DB00446002506E025280AD0109A70
:102950000F999047641C6D1C20780028F5D12846FB
:1029600011B0F0BD00270121484A009700E007435D
:10297000641C23780846203B98401042F7D1207809
:102980002E2817D1042007436078641C2A280CD114
:102990000E98641C02C800910E900BE000990A2268
:1029A000514330394018641C00902078014630397A
:1029B0000929F3D920780028D1D0642808D06928C3
:1029C00006D075281ED0109A0F9990476D1C5BE0B9
:1029D0000A200E99019001C90E91002802DA4042A6
:1029E0002D2102E0390504D52B216A4611720121FF
:1029F00003E0F90704D02021F7E70BAE0B910DE0BF
:102A00000021FAE70A200E99019001C90E91F7E71B
:102A10000199FDF76DFB3031761E31700028F7D13A
:102A200003A8801B20300190780701D5009801E0B1
:102A3000012000900199884201DD401A00E0002049
:102A40000027009006E002A8109AC05D0F999047F9
:102A50006D1C7F1C0B988742F5DB04E0109A302038
:102A60000F9990476D1C0099481E00900029F5DCD5
:102A700005E03078109A761C0F9990476D1C0199EB
:102A8000481E01900029F4DC641C65E70928010058
:102A90000349CA695206FCD5C2B28A627047000077
:102AA0000044004008B50025FEF762FAFFF7A2FCDB
:102AB000FFF7AAF8FFF73EF8FFF7F2F8FFF70EF975
:102AC00001210022C903D148FEF73DFA0520012269
:102AD00080210007FEF737FA0221CD48FEF72EFAD3
:102AE0000028F9D005242407012240212046FEF7C2
:102AF0002AFA4B20C000FEF75FF900224021204651
:102B0000FEF721FA012220212046FEF71CFA3C2084
:102B1000FEF752F9002220212046FEF714FABD48A4
:102B2000FEF74AF97D27FF0002E03846FEF744F938
:102B3000B9A20421B9A0FFF70BFC0028F5D1B9A078
:102B4000FFF7BAFE02E03846FEF736F9B2A20621D8
:102B5000B8A0FFF7FDFB0028F5D1B8A0FFF7ACFE49
:102B6000BA4C0020BA4E2071ABA20821B9A0FFF7E1
:102B7000EFFB002813D1B0782B2810D1707A2C28C5
:102B800003D0B17A2C2903D009E0307A303805E03F
:102B9000317A0A2230395143303940182071384691
:102BA000FEF70AF920790028DED06328DCD0A74898
:102BB0000179ABA0FFF780FE02E03846FEF7FCF893
:102BC000ADA20B21AFA0FFF7C3FB0028F5D1B0A049
:102BD000FFF772FE02E03846FEF7EEF8B1A20B21D5
:102BE000B3A0FFF7B5FB0028F5D1B4A0FFF764FE52
:102BF00002E03846FEF7E0F887A20D21B2A0FFF709
:102C0000A7FB0028F5D1B4A0FFF756FE7D200001F8
:102C100001E07D20C000FEF7CFF8B5A20C21B7A0DF
:102C2000FFF796FB0028F4D1B8A0FFF745FE7AA283
:102C30000F21BBA0FFF78CFB6420FEF7BDF876A246
:102C40002021BBA0FFF784FB73A22021C1A0FFF7C6
:102C50007FFB6420FEF7B0F86FA21521C6A0FFF736
:102C600077FBCB4E3078012814D1CA4C2078401C19
:102C700020700120FEF7A0F820780A28F6D300245F
:102C80003470C54E7D23DB003278C449C448FEF75A
:102C9000CBFE3470C34E3078012817D1C24C207857
:102CA000401C20700120FEF787F820780A28F6D310
:102CB00000243470BD4EBA487D23DB00327864496D
:102CC0008030FEF7B1FE3470FFF726F8504C022139
:102CD0002046FEF733F9002810D10122D1034B48DA
:102CE000FEF731F902212046FEF728F90028F9D035
:102CF0000520002280210007FEF725F96D1CADB2EA
:102D00000020FEF759F87D20C0008542A9D9002592
:102D1000FDF770FE00273E464C4CFDF76BFE384633
:102D20002169FDF758FA761CF6B207460A2EF4D34D
:102D30009F49FDF7E6FA9F492061884201DD642042
:102D400027E09D4988420EDA0020A0706078401C80
:102D5000C0B2607002281DD9052000228021000722
:102D6000FEF7F1F816E0FDF7F1FC944A944BFDF7FD
:102D7000BDFB944E00223346FDF7C0FB8F4A924BB9
:102D80005242FDF723FC00223346FDF7AFFBFDF76F
:102D9000BFFCA0702078022800D062E7A0786421F0
:102DA0000090FDF7A5F9294A67799432D619303099
:102DB0002036707008460A21FDF79AF93030B0705D
:102DC0000A210098FDF794F93031F170E17800980C
:102DD000884212D01D482A37F9B20FA29430FFF76B
:102DE000B7FA627919496E487D23DB00943180304F
:102DF0002A32FEF719FEA078E0707D23DB0017224F
:102E000072A16748FEF710FE2BE700000008005093
:102E100000040050102700004F4B000041540D0AE1
:102E20000000000042433230C4A3D7E9D5FDB3A36C
:102E30000D0A0000415445300D0A0000D2D1BEAD4C
:102E4000B9D8B1D5BBD8CFD40D0A000000000020FE
:102E5000B803002041542B4353510D0A00000000D9
:102E60004E425F5369676E616C5F56616C75653D7C
:102E700025640D0A000000002B43455245473A20C7
:102E8000302C310041542B43455245473F0D0A0039
:102E9000455053CDF8C2E7D7A2B2E1B3C9B9A60DE8
:102EA0000A0000002B43474154543A2031000000EF
:102EB00041542B43474154543F0D0A005053D2D143
:102EC000B8BDD7C50D0A000041542B51474E53538E
:102ED000433D310D0A000000474E5353B4F2BFAAE0
:102EE000C3FCC1EED2D1B7A2CBCD0D0A00000000C9
:102EF0002B51474E5353433A2031000041542B513C
:102F0000474E5353433F0D0A00000000474E5353B2
:102F1000B5E7D4B4D2D1B4F2BFAA0D0A00000000C4
:102F200041542B4D49504C4352454154450D0A00E4
:102F300041542B4D49504C4144444F424A3D302C62
:102F4000333332302C312C2231222C312C300D0AEB
:102F50000000000041542B4D49504C4144444F4225
:102F60004A3D302C333333362C312C2231222C3253
:102F70002C300D0A0000000041542B4D49504C4F9D
:102F800050454E3D302C38363430300D0A000000AC
:102F9000480100204A01002049010020B802002019
:102FA000B80100204B0100204D0100204C01002001
:102FB000000020413333834000004040666666666F
:102FC00066661040000059409999F13F41542B51D9
:102FD000474E535352443D224E4D45412F524D438F
:102FE000220D0A000000000000000000010203049E
:102FF00006070809030406080C101820300000001A
:103000000001020304000000283000080000002036
:103010005C01000078090008603000085C010020B5
:103020005C07000030290008013008152341542BAB
:103030004D49504C4F4253455256455253503D30E6
:103040002C321E444953434F3209213359320F1F4A
:103050004E4F544946596009843CE152200000001B
:04000005080000C12E
:00000001FF
